0120154598244556PEN20160428001103060100032108                                                                                                           
02FABIAN MUNOZ LUIS ENRIQUE     0074451357MAT-PARTICULAR5719F7A768FBC78021B808AC00000000000400000000000000400000000000000000003060526272016042801018I39 
02BALBIN GALAN VICTOR HUGO      0047344278  MAT-ESTATAL 5719F7B368FBC78021B808DB0000000000170500000000000170500000000000000000477067885201604280101D911 
02BARBARAN RAMIREZ ROSA LILIAN  0041782991MAT-PARTICULAR5719F68E598FE0A409B00F690000000000210500000000000210500000000000000000982071687201604280101RA11 
02POVES REYMUNDO KAREN ELIZABETH0002120397MAT-ORDINARIA 5711681D26F9D91600DD189100000000000500000000000000500000000000000000004389906902016042801060724 
03000000004000000000047100000000000047100000000000000000