0120154598244556PEN20160426001103060100032108                                                                                                           
02VALERA MAXIMILIANO CESAR ALAIN0071339553  MAT-ESTATAL 5719F6FD68FBC78021B806FB00000000001705000000000001705000000000000000004385875742016042601068899 
02DAHUA DIAZ LESLY              0076376010  MAT-ESTATAL 5719F67E85D5B12C0DCF2E8C00000000001705000000000001705000000000000000004385968742016042601060259 
02VALDEIGLESIAS ARROYO IVO GAETA0077500286MAT-PARTICULAR5719F71768FBC78021B8076200000000000400000000000000400000000000000000003066581972016042601018I33 
02HIDALGO GARCIA SAULO          0072083357MAT-PARTICULAR5719F77168FBC78021B8080E00000000002105000000000002105000000000000000004386752582016042601063031 
02VASQUEZ AHUANARI JAMPIERT JUNI0072619027  MAT-ESTATAL 5719F6FD68FBC78021B806FF0000000000170500000000000170500000000000000000477686389201604260101D911 
02GREFFA RODRIGUEZ KINVERLY JAKE0075169583  MAT-ESTATAL 5719F78868FBC78021B8082E00000000001705000000000001705000000000000000004387630132016042601065201 
03000000006000000000093250000000000093250000000000000000                                                                                                
