0120154598244556PEN20160413001103060100032108                                                                                                           
02BERNAL APAESTEGUI SUSY        0002150797MAT-ORDINARIA 570CEEA674AEB911007A028800000000000500000000000000500000000000000000003160285562016041301018S22 
02TIPTO PIZANGO KAREN MILAGROS  0002110221MAT-ORDINARIA 570CFD3629E48811006EAD3F00000000000500000000000000500000000000000000003060280352016041301018I42 
02BADOS PAWELCZYK DANKO ANTHONY 0002150006MAT-ORDINARIA 570D582F4C66603A0069159E00000000000500000000000000500000000000000000004380276942016041301065816 
02IPANAQUE REATEGUI LUIS ENRIQUE0002120052MAT-ORDINARIA 570CEB1674AEB911007A01ED00000000000500000000000000500000000000000000004380275042016041301065701 
02SALDANA TIPTO VIVIANA MISELYNE0002120085MAT-ORDINARIA 570D58D34C66603A006915C10000000000050000000000000050000000000000000000477027435201604130101D912 
02RIOS MACEDO JOSE MARTIN       0002140155MAT-ORDINARIA 570CBA4694A9561100B0494000000000000500000000000000500000000000000000004380273432016041301066780 
02PALOMINO ZAMBRANO XEFORA NADIA0002130667MAT-ORDINARIA 570CBA4694A9561100B0470F00000000000700000000000000700000000000000000004380273362016041301066498 
02VELASQUEZ SATALAYA ALEX JUNIOR0002140288MAT-ORDINARIA 570D07142FE2B8110055CA5400000000000500000000000000500000000000000000004380271332016041301065100 
02RIBEIRO NAVARRO WENDY         0002130620MAT-ORDINARIA 570D09A82FE2B8110055CBF700000000002100000000000002100000000000000000004380266662016041301068319 
02VASQUEZ TORRES VALERIA        0002120647MAT-ORDINARIA 570CBA4794A9561100B049D200000000000700000000000000700000000000000000004380264622016041301066252 
02SANTOS VELASQUEZ LIZETH       0002140715MAT-ORDINARIA 570D695FFA787E160061107200000000000900000000000000900000000000000000004380263912016041301061579 
02GARCES SALVATIERRA CINDY CAROL0002140117MAT-ORDINARIA 570CBA4694A9561100B047B400000000000500000000000000500000000000000000004380263082016041301067060 
02PANDURO TENAZOA JEAN WILSON   0002120276MAT-ORDINARIA 570CDFC274AEB911007A01020000000000070000000000000070000000000000000000982026161201604130101RA13 
02ROJAS TORRES DIOMEDES         0002020309MAT-ORDINARIA 570D70FC8BD7D31B0002351200000000000500000000000000500000000000000000003060252382016041301018I42 
02RODRIGUEZ ROJAS JASON DEYVI   0002140056MAT-ORDINARIA 570D574DCB5F454300FE8A4100000000000700000000000000700000000000000000004380252372016041301065615 
02QUINTANA TELLO PIERO ALEXANDER0002140046MAT-ORDINARIA 570D2E05D01BB011003BBB4000000000000500000000000000500000000000000000004380251162016041301069644 
02FALCON MACEDO GILSIA JASMINI  0002150572MAT-ORDINARIA 570D41DC366AB5110025257400000000000500000000000000500000000000000000002120249512016041301015W1B 
02MALDONADO RAMIREZ TOMAS LEOVIG0002150220MAT-ORDINARIA 570CBA4794A9561100B04B9E00000000000500000000000000500000000000000000002330241162016041301016H14 
02ARCENTALES ROMERO GRACE SOFIA 0002120224MAT-ORDINARIA 570CBA4794A9561100B04A160000000000050000000000000050000000000000000000477024006201604130101D911 
02RUFASTO ASCONA MARY GLORIA    0002140060MAT-ORDINARIA 570D1DF273239611004615D500000000000700000000000000700000000000000000004380230512016041301066643 
02VELA RODRIGUEZ SUSAN KAROLINA 0002140083MAT-ORDINARIA 570D5743CB5F454300FE8A3D00000000000500000000000000500000000000000000004380227062016041301068013 
02MOZOMBITE VALLES GUIDO VLADIMI0002140248MAT-ORDINARIA 570D2297C76C88110059F0F900000000000700000000000000700000000000000000004380226062016041301061759 
02BARROS GUERRA MARC ANTHONY    0002140011MAT-ORDINARIA 570D57FE4C66603A0069159400000000000500000000000000500000000000000000004380225212016041301066989 
02RAMIREZ FLORES JOSE ARTURO    0002090264MAT-ORDINARIA 570D2F81D2FEB11100F237BB00000000000500000000000000500000000000000000004380222742016041301061172 
02GODEAU PIZARRO FIORELLA       0002150699MAT-ORDINARIA 570CBA4794A9561100B049E400000000000500000000000000500000000000000000002120221882016041301015W1B 
02MURO LINARES EDUARDO          0002101047MAT-ORDINARIA 570D32A7689915110021A46E00000000000500000000000000500000000000000000003060220652016041301018I35 
02CHERO OREJON KEVIN ANTHONY    0002140794MAT-ORDINARIA 570D58E54C66603A006915C90000000000070000000000000070000000000000000000439021849201604130101C71C 
02SANCHEZ MEZA ABEL LUIS        0002140836MAT-ORDINARIA 570D02ED159131110026B9FA0000000000050000000000000050000000000000000000439021711201604130101C71C 
02MONTERO GARCIA CARLO MAGNO    0002110031MAT-ORDINARIA 570CDDFD74AEB911007A00F000000000000900000000000000900000000000000000003060216072016041301018I42 
02RIOS RAMIREZ STEPHANY PRISCILA0002120289MAT-ORDINARIA 570CF63C74AEB911007A03F000000000000500000000000000500000000000000000002120214542016041301015W1B 
02RENGIFO GARCIA JENNIFER LIZET 0002090916MAT-ORDINARIA 570D0B462FE2B8110055CCC30000000000050000000000000050000000000000000000477021298201604130101D911 
02ANCCASI RAMOS JESSENIA        0002130737MAT-ORDINARIA 570CBA4694A9561100B0483A00000000000500000000000000500000000000000000004380212552016041301068043 
02SALDANA BARDALES WENDY NORHELI0002140065MAT-ORDINARIA 570D34DC0106DA1100977A0500000000000700000000000000700000000000000000004380212412016041301066982 
02PEREA MACAHUACHI ZENON ANTONIO0002120280MAT-ORDINARIA 570D2437E91917110007BD6D00000000000700000000000000700000000000000000002120212172016041301015W1B 
02MUNANTE ACOSTA NATALY LIZETH  0002150713MAT-ORDINARIA 570D107903C53811004D420F0000000000050000000000000050000000000000000000477021167201604130101D911 
02BARRERA QUEVEDO KAREN DANESSA 0002130742MAT-ORDINARIA 570CBA4694A9561100B0486000000000000500000000000000500000000000000000004380210922016041301067933 
02MACEDO CERRON ISABEL MILAGROS 0002150708MAT-ORDINARIA 570CBA4794A9561100B04BD30000000000050000000000000050000000000000000000477021086201604130101D911 
02GRANDEZ MANZUETO CLEY EDUARDO 0002140025MAT-ORDINARIA 570D16A4E13540110018F15200000000000500000000000000500000000000000000004380210822016041301067521 
02HUAMAN PEREZ MARIA DE LOS ANGE0002150704MAT-ORDINARIA 570CBA4694A9561100B0478B0000000000050000000000000050000000000000000000477020946201604130101D911 
02GARCIA FLORES LADY VICTORINA  0002130758MAT-ORDINARIA 570D08832FE2B8110055CB4900000000000500000000000000500000000000000000004380209052016041301068157 
02FLORES VASQUEZ DIEGO FRANCO   0002120250MAT-ORDINARIA 570D03BC159131110026BAC400000000000500000000000000500000000000000000002120208322016041301015W1B 
02CAYETANO HALANOCA GIANINA ANGE0002140016MAT-ORDINARIA 570D19A6C969D61100DCEDDE00000000000500000000000000500000000000000000004380206542016041301062951 
02QUISPE PILCO JULIAN           0002130786MAT-ORDINARIA 570D6E2916357831006A2EFC00000000000500000000000000500000000000000000004380205902016041301069656 
02NAVAS RUIZ NORMY GIANELLA     0002150133MAT-ORDINARIA 570CBA4794A9561100B04B520000000000050000000000000050000000000000000000477020550201604130101D911 
02DURAN LINO KENY KERLY         0002150693MAT-ORDINARIA 570CBA4694A9561100B048BA00000000000500000000000000500000000000000000003060205292016041301018I39 
02GAMEZ MACAHUACHI KARLA ALEJAND0002140116MAT-ORDINARIA 570D0430E1B9091100FC23CD00000000000500000000000000500000000000000000003060203552016041301018I48 
02MATHIOS CASTRO ALESSANDRA CAR 0002110530MAT-ORDINARIA 570CBA4594A9561100B046C50000000000070000000000000070000000000000000000439020325201604130101C71C 
02MEDINA SALDANA SABINA ISABEL  0002120268MAT-ORDINARIA 570D57384C66603A0069157A00000000000500000000000000500000000000000000004380201652016041301063604 
02REATEGUI PEREZ EDWIN EDUARDO  0002140049MAT-ORDINARIA 570D50784C66603A0069154E00000000000500000000000000500000000000000000004380200622016041301067371 
02CHINO LURITA JHAKQUIR ANDRES  0002150807MAT-ORDINARIA 570D4F98AF95513100D1A1D90000000000070000000000000070000000000000000000477019140201604130101D911 
02RENGIFO CARTAGENA JORGE JAVIER0002140051MAT-ORDINARIA 570CFD3729E48811006EAD4100000000000500000000000000500000000000000000004380190132016041301063575 
02GONZALES ESCOBAR MARILYN ROCIO0002080023MAT-ORDINARIA 570CBA4794A9561100B04B9A00000000000500000000000000500000000000000000002120187812016041301015W1B 
02LEON TAFUR RICHAR             0002140129MAT-ORDINARIA 570CEAE474AEB911007A01E100000000000500000000000000500000000000000000004380186662016041301069292 
02VASQUEZ GARCIA MARY MAR       0002140177MAT-ORDINARIA 570D1ABDC969D61100DCEEC20000000000050000000000000050000000000000000000477018291201604130101D911 
02PINZON MERCEDES MARILYN MAGDIE0002130617MAT-ORDINARIA 570E4AF30F4D832200BF573B00000000000500000000000000500000000000000000002120182382016041301015W1B 
02CARRANZA RIOS KATTEDY MIREYA  0002150683MAT-ORDINARIA 570CF12874AEB911007A02F50000000000050000000000000050000000000000000000477018180201604130101D911 
02ORE LAUREANO ELIZABETH ROXANA 0002130610MAT-ORDINARIA 570D19ABC969D61100DCEDE500000000000500000000000000500000000000000000002120180762016041301015W1B 
02GOMEZ BARDALES MILI           0002150700MAT-ORDINARIA 570CBA4694A9561100B048660000000000050000000000000050000000000000000000477018023201604130101D911 
02TUANAMA PEZO MILAGROS JULYSSA 0002120312MAT-ORDINARIA 570D6B8D8BD7D31B0002346800000000000500000000000000500000000000000000004380177762016041301060708 
02PINAS ALIAGA IVAN CHRISTIAN   0002130228MAT-ORDINARIA 570D19ADC969D61100DCEDE800000000000500000000000000500000000000000000002120176642016041301015W1B 
02ANGULO HOYOS MARCO ANTONIO    0002110154MAT-ORDINARIA 570D26AAFA2F471100B1BA7000000000000900000000000000900000000000000000004380166342016041301066110 
02HERNANDEZ HUAMAN CRISTHIAN ALE0002080581MAT-ORDINARIA 570D03EA159131110026BAE100000000000500000000000000500000000000000000004380166212016041301064718 
02ARAUJO GARCIA MIRELLA JENNIFER0002120654MAT-ORDINARIA 570CFEC229E48811006EADBD00000000000500000000000000500000000000000000004380164782016041301063850 
02TALAVERA BERMUDO MARIA INES   0002120712MAT-ORDINARIA 570D0244159131110026B99400000000000500000000000000500000000000000000004380164752016041301063582 
02REATEGUI RAMOS PAUL KEVIN     0002120699MAT-ORDINARIA 570D0D9F2FE2B8110055CD3600000000000500000000000000500000000000000000004380164702016041301063433 
02LOAYZA RODRIGUEZ EDGAR JAMES  0002140131MAT-ORDINARIA 570D0D9E2FE2B8110055CD3400000000000500000000000000500000000000000000003060159882016041301018I44 
02RIOS LOPEZ KARLA NILDA        0002120499MAT-ORDINARIA 570CBA4794A9561100B049F20000000000050000000000000050000000000000000000477015958201604130101D911 
02RUIZ PINEDO JOSE ESTALIN      0002140775MAT-ORDINARIA 570CBA4794A9561100B04ADA0000000000050000000000000050000000000000000000439015900201604130101C71C 
02CASTRO SAJAMI ANDREW HAIRTON  0002140733MAT-ORDINARIA 570D0459E1B9091100FC23EA0000000000050000000000000050000000000000000000439015822201604130101C71C 
02CRUZADO MEJIA MARTIN VALDEMAR 0002150195MAT-ORDINARIA 570CBA4694A9561100B048CF00000000000700000000000000700000000000000000003060156312016041301018I3B 
02CASTILLO VEGA MARTIN MARCELO  0002150013MAT-ORDINARIA 570D4A78AF95513100D1A14900000000001700000000000001700000000000000000004380151942016041301067722 
02MAGARINOS GONZALEZ GUADALUPE D0002140811MAT-ORDINARIA 570E41595DC2812200048AF200000000000500000000000000500000000000000000002120150662016041301015W1B 
02AREVALO BARTRA CHRIS JOHANA   0002140092MAT-ORDINARIA 570D65B6A8C7FB1B00A90C0600000000000500000000000000500000000000000000004380637302016041301063386 
02VILLALOBOS LOPEZ JHONATAN LINC0002150077MAT-ORDINARIA 570CBA4794A9561100B04B8E00000000000700000000000000700000000000000000004380621322016041301069586 
02ALVAREZ MIRABAL MARGOTH       0002101020MAT-ORDINARIA 570D46A03D736E2800F7870900000000000500000000000000500000000000000000002120590962016041301015W1B 
02CASTANEDA ESPINOZA LUIS DOMIN 0002110755MAT-ORDINARIA 570D4241366AB511002525B000000000000500000000000000500000000000000000002120589942016041301015W1B 
02ACOSTA RIOS KAROL BRENDA      0002080558MAT-ORDINARIA 570CBA4694A9561100B0483800000000000500000000000000500000000000000000004380581342016041301069381 
02ESTRADA ABANTO LUIS MIGUEL    0002130752MAT-ORDINARIA 570D6CA6FA787E16006110E700000000000700000000000000700000000000000000002120574972016041301015W11 
02NIETO RODRIGUEZ JHONATAN      0002130138MAT-ORDINARIA 570D58844C66603A006915B400000000000700000000000000700000000000000000002120572932016041301015W11 
02AGUIRRE SIAS JEANE ANDREA     0002140002MAT-ORDINARIA 570D21E5C76C88110059F08800000000000700000000000000700000000000000000004380571882016041301060746 
02LAULATE VASQUEZ CRISTIAN JESUS0002120260MAT-ORDINARIA 570D5766CB5F454300FE8A4900000000000500000000000000500000000000000000004380561152016041301063531 
02RIOS ALVAREZ DANTE ADRIEL     0002120701MAT-ORDINARIA 570CBA4694A9561100B0485000000000000700000000000000700000000000000000004380533962016041301068774 
02LOBO LOPEZ WALTER EDUARDO     0002150584MAT-ORDINARIA 570D34980106DA11009779FE00000000000500000000000000500000000000000000004380516822016041301066696 
02HERNANDEZ HERNANDEZ MICHAEL JI0002120863MAT-ORDINARIA 570D1AEDC969D61100DCEEEE00000000001100000000000001100000000000000000004380511762016041301069350 
02MORI PEREZ YANDERIN YANIRA    0002120271MAT-ORDINARIA 570D436C713715160066CBEC00000000000500000000000000500000000000000000003060511432016041301018I42 
02BOCANEGRA GONZALES ARMANDO AND0002130693MAT-ORDINARIA 570CBA4694A9561100B0489000000000000900000000000000900000000000000000004380509272016041301068013 
02ESTRADA MEZA KELY             0002120244MAT-ORDINARIA 570D6F018BD7D31B000234DE00000000000500000000000000500000000000000000004380485832016041301060982 
02RUPP PRENTICE KARL MARTIN     0002140833MAT-ORDINARIA 570D738E8BD7D31B0002356400000000000500000000000000500000000000000000002120148922016041301015W1B 
02VALENCIA GRADOS SHAKIRA WALLES0002130803MAT-ORDINARIA 570CBA4694A9561100B047E800000000000900000000000000900000000000000000002120145042016041301015W11 
02VALENCIA GRADOS DINA ESTHER   0002101060MAT-ORDINARIA 570CBA4694A9561100B0486A00000000000500000000000000500000000000000000002120143132016041301015W11 
02LOZANO RODRIGUEZ YUNI         0002120266MAT-ORDINARIA 570CBA4794A9561100B049D00000000000050000000000000050000000000000000000477014261201604130101D911 
02BENSON VASQUEZ EDUARDO WALDIR 0002120014MAT-ORDINARIA 570CBA4694A9561100B0495C00000000000500000000000000500000000000000000002330131942016041301016H14 
02MARQUEZ ROSALES DENEB NEREID  0002140754MAT-ORDINARIA 570D16A8E13540110018F15E00000000000700000000000000700000000000000000003060130942016041301018I35 
02CAVA RIOS GIAN CARLO          0002120233MAT-ORDINARIA 570CBA4794A9561100B04ABF00000000000500000000000000500000000000000000004380128042016041301061186 
02TORRES CASANOVA LUIS ALBERTO  0002120310MAT-ORDINARIA 570CBA4694A9561100B047CB00000000000500000000000000500000000000000000002120126812016041301015W1B 
02GONZALES PEREZ ROSA MARLITH   0002140615MAT-ORDINARIA 570E56AE68D88E8B00A22EE400000000000700000000000000700000000000000000003060124702016041301018I39 
02RENGIFO RAMIREZ MIGUEL ANGEL  0002120285MAT-ORDINARIA 570CBA4794A9561100B049B000000000000700000000000000700000000000000000004380123072016041301066409 
02AREVALO GARCIA IVAN DIEGO     0002150679MAT-ORDINARIA 570CBA4694A9561100B0487600000000000500000000000000500000000000000000003060122082016041301018I39 
02CHAVEZ VARGAS KARLA MILUSKA   0002150686MAT-ORDINARIA 570CBA4794A9561100B04A4A00000000000500000000000000500000000000000000003060119852016041301018I39 
02CAMPOS MORI JESUS             0002150094MAT-ORDINARIA 570CFF7629E48811006EADF600000000000500000000000000500000000000000000002120118742016041301015W1B 
02RIOJA DONEZ JESSY ESTEPHANY   0002150728MAT-ORDINARIA 570CBA4694A9561100B0492B00000000000500000000000000500000000000000000003060118322016041301018I39 
02FASABI CHOTA LADY VALERIA     0002150695MAT-ORDINARIA 570CBA4794A9561100B04ACD00000000000700000000000000700000000000000000004380117242016041301067944 
02SULCA REYNA SARAI             0002150738MAT-ORDINARIA 570CBA4694A9561100B0495200000000000500000000000000500000000000000000004380113702016041301061246 
02ROJAS RODRIGUEZ SHEYLA KATHERI0002150729MAT-ORDINARIA 570CBA4694A9561100B0497F00000000000500000000000000500000000000000000004380112242016041301060298 
02PANTIGOSO MEDRANO LOTH        0002090912MAT-ORDINARIA 570D2070C76C88110059EFAA00000000000700000000000000700000000000000000004380110842016041301060909 
02PALMA CABRERA NATHALIE PAOLA  0002130782MAT-ORDINARIA 570CBA4794A9561100B049C600000000000500000000000000500000000000000000004380110292016041301067006 
02RAMOS VELASCO JOHANNA MARIA   0002150726MAT-ORDINARIA 570CBA4694A9561100B0493E00000000000500000000000000500000000000000000004380108152016041301061201 
02COQUINCHE AMACIFUEN SUSANA    0002130099MAT-ORDINARIA 570D729516357831006A2F7800000000000500000000000000500000000000000000004380105022016041301069339 
02TELLO MACEDO KENNY JUNIOR     0002120307MAT-ORDINARIA 570CBA4794A9561100B049F900000000000500000000000000500000000000000000002330103492016041301016H14 
02LOPEZ VALERA GINA ALMENDRA    0002130337MAT-ORDINARIA 570E4CA5DB5115160062DF7800000000000500000000000000500000000000000000004380099892016041301069597 
02TORRES RAMIREZ CARLOS ANGEL   0002130374MAT-ORDINARIA 570E4CF10F4D832200BF574700000000000500000000000000500000000000000000004380098952016041301062139 
02ACUNA CASTILLO DAYAN DAMISU   0002140595MAT-ORDINARIA 570CF0CF74AEB911007A02D600000000000700000000000000700000000000000000004380095532016041301067543 
02VILCHEZ ANTO TANIA MILAGROS DE0002140183MAT-ORDINARIA 570CF6BD74AEB911007A041400000000000500000000000000500000000000000000002330095352016041301016H13 
02PEZO CARRANZA ALEXANDRA ABRIL 0002150720MAT-ORDINARIA 570CBA4794A9561100B04A4700000000000700000000000000700000000000000000004380093932016041301066923 
02CHAUCA GONZALES DENORAK YOMAH 0002101026MAT-ORDINARIA 570CBA4794A9561100B04A6900000000000500000000000000500000000000000000002120091072016041301015W1B 
02GOMEZ TORRES JUAN ANTONIO     0002120669MAT-ORDINARIA 570CEDEF74AEB911007A025800000000001700000000000001700000000000000000004380090762016041301063449 
02VELA MOSQUERA LLANAINA CRISTIN0002150172MAT-ORDINARIA 570D1987C969D61100DCEDB80000000000050000000000000050000000000000000000439009048201604130101C71C 
02GRATELLY VIENA GEORDI ANTONY  0002130703MAT-ORDINARIA 570D1D72732396110046158500000000000900000000000000900000000000000000004380090292016041301069621 
02DEL AGUILA PIRRO YOSIE YARINA 0002090896MAT-ORDINARIA 570CEAED74AEB911007A01E300000000000500000000000000500000000000000000002120090152016041301015W1B 
02APAGUENO SABOYA BELIZARIO JUNI0002130004MAT-ORDINARIA 570D13D7BD80A41100B2AEB400000000000500000000000000500000000000000000002120089542016041301015W11 
02RAMIREZ PEREZ LUZ THALIA      0002150240MAT-ORDINARIA 570CBA4794A9561100B04A2200000000000500000000000000500000000000000000004380089262016041301061995 
02REYNA SEGURA DEISY NATALY     0002130057MAT-ORDINARIA 570D47FF713715160066CCCD00000000000700000000000000700000000000000000004380088222016041301063501 
02TUANAMA REATEGUI EDWIN IVAN   0002150166MAT-ORDINARIA 570CBA4794A9561100B049DE00000000000500000000000000500000000000000000004380088112016041301062751 
02VERA RAFAEL IRMA              0002150263MAT-ORDINARIA 570E4EC04070108200E40EE500000000000500000000000000500000000000000000004380086032016041301065696 
02GONZALES SANTAMARIA JEFFERSON 0002140744MAT-ORDINARIA 570CBA4694A9561100B047C900000000000500000000000000500000000000000000004380085172016041301069020 
02CATASHUNGA GONZALES ZILA JANE 0002100265MAT-ORDINARIA 570E50358C00D7200063F59500000000000500000000000000500000000000000000004380080882016041301064206 
02INUMA PEREZ FLOR STEFANY      0002150215MAT-ORDINARIA 570CBA4694A9561100B0474900000000000500000000000000500000000000000000002120074262016041301015W11 
02INUMA PEREZ DIANA ESTHER      0002120675MAT-ORDINARIA 570CBA4694A9561100B046C800000000000500000000000000500000000000000000002120072992016041301015W11 
02HOYOS GARCIA MANUEL ARON      0002150703MAT-ORDINARIA 570CBA4694A9561100B0482400000000000500000000000000500000000000000000003060070102016041301018I39 
02NONAKA ARCE JOSSELY KAORU     0002150053MAT-ORDINARIA 570D21D6C76C88110059F07F00000000000500000000000000500000000000000000004380069372016041301064242 
02SANGAMA CHASHNAMOTE KAREN     0002140647MAT-ORDINARIA 570CECF774AEB911007A023900000000000500000000000000500000000000000000003060066952016041301018I35 
02RUIZ MARTIN MARILIA           0002140645MAT-ORDINARIA 570CBA4794A9561100B04A4C00000000000500000000000000500000000000000000003060066122016041301018I35 
02BARBARAN GRANDEZ DANIEL       0002130008MAT-ORDINARIA 570D4320713715160066CBDF00000000000500000000000000500000000000000000004380064482016041301065637 
02NACIMENTO RUIZ NARDA LUCIA    0002140628MAT-ORDINARIA 570D5E06A2C9AF1600BD1FEE00000000001100000000000001100000000000000000002120063622016041301015W11 
02QUISPE AUCALLANCHI JENNYFER SA0002120916MAT-ORDINARIA 570CBA4694A9561100B048DE00000000000700000000000000700000000000000000003060062872016041301018I35 
02MARINA CALAMPA MAYTE SHARON   0002151011MAT-ORDINARIA 570D19FFC969D61100DCEE3000000000000500000000000000500000000000000000004380062472016041301060459 
02CALLUPE CARDENAS EMILIANO CHRI0002130581MAT-ORDINARIA 570D59AACB5F454300FE8AC400000000000500000000000000500000000000000000002120062402016041301015W11 
02SAJAMI VALERA JHONATAN MAYKEL 0002120922MAT-ORDINARIA 570CBA4694A9561100B048FD00000000000700000000000000700000000000000000003060061512016041301018I35 
02GARAZATUA RUIZ BRIGIDA MILAGRO0002140613MAT-ORDINARIA 570CF1BA74AEB911007A031400000000000700000000000000700000000000000000004380055632016041301068022 
02NAVARRO RAMIREZ AMANDA NATALIA0002140629MAT-ORDINARIA 570CEF8B74AEB911007A02A500000000000500000000000000500000000000000000004380054652016041301060771 
02SANGAMA VILLACORTA ALEX JESUS 0002120299MAT-ORDINARIA 570CBA4694A9561100B0475800000000000700000000000000700000000000000000003060053752016041301018I3B 
02GUERRA URBINA MANUEL GUSTAVO  0002130594MAT-ORDINARIA 570D2735FA2F471100B1BAAD00000000000500000000000000500000000000000000004380052902016041301067017 
02EUGENIO TOLENTINO ZOEIDELITH M0002120245MAT-ORDINARIA 570CBA4694A9561100B0476B00000000000500000000000000500000000000000000003060052662016041301018I3B 
02EUGENIO TOLENTINO SHERLIZYEN R0002130107MAT-ORDINARIA 570CBA4694A9561100B0490200000000000500000000000000500000000000000000003060052012016041301018I3B 
02ESPINOZA HUAMAN ELVIS IVAN    0002120243MAT-ORDINARIA 570CBA4694A9561100B0474700000000000500000000000000500000000000000000003060051282016041301018I3B 
02YAICATE MELENDEZ CANDY KARINA 0002150619MAT-ORDINARIA 570CBA4694A9561100B0483C00000000000500000000000000500000000000000000004380051222016041301063669 
02RENGIFO GARCIA ERICK JONNATHAN0002130723MAT-ORDINARIA 570D10DABD80A41100B2ADF000000000000500000000000000500000000000000000002330048552016041301016H13 
02GRANDEZ SANDOVAL HEMAN GIDALTI0002120044MAT-ORDINARIA 570D02A7159131110026B9DE00000000000500000000000000500000000000000000002120048372016041301015W11 
02MURAYARI CEPEDA FIORELLA LIU K0002130607MAT-ORDINARIA 570E47560F4D832200BF572E00000000000500000000000000500000000000000000003060047602016041301018I3B 
02LINARES RIOS TRACY SLY        0002120055MAT-ORDINARIA 570CBA4694A9561100B0491600000000000500000000000000500000000000000000002120046922016041301015W11 
02VERA CESPEDES RUTH ELENA      0002140289MAT-ORDINARIA 570D07FD2FE2B8110055CAF500000000000900000000000000900000000000000000004380044052016041301060624 
02PINEDO CARDENAS BRENDA SHANNA 0002140634MAT-ORDINARIA 570CBA4794A9561100B04A2600000000000500000000000000500000000000000000002120038112016041301015W11 
02DIAZ SHUNA LESLY ALESANDRA    0002140611MAT-ORDINARIA 570D6BF3FA787E16006110D100000000000500000000000000500000000000000000002120036672016041301015W11 
02AHUANARI HUANUIRI BECY        0002130003MAT-ORDINARIA 570D4B9DAF95513100D1A1A300000000000900000000000000900000000000000000003060036652016041301018I44 
02BARRIOS ROJAS KIARA STEFANY   0002120012MAT-ORDINARIA 570CBA4694A9561100B046E400000000000500000000000000500000000000000000002120035742016041301015W11 
02AMASIFUEN SAURINO JULINHO     0002120005MAT-ORDINARIA 570CBA4794A9561100B049E200000000000500000000000000500000000000000000002120034342016041301015W11 
02RODRIGUEZ MONTES FRANK CLEVER 0002110775MAT-ORDINARIA 570E5671CFE0375E008457BB00000000000500000000000000500000000000000000004380032932016041301069348 
02LOPEZ RIVERA CARLOS ENRIQUE   0002120057MAT-ORDINARIA 570CBA4694A9561100B0476400000000000500000000000000500000000000000000002120032772016041301015W11 
02LOPEZ PINEDO JEFFERSON AYRTHON0002150038MAT-ORDINARIA 570D35CE0106DA1100977A5900000000000700000000000000700000000000000000003060027182016041301018I4A 
02NARVASTA VILLAFUERTE JEAN PIER0002090447MAT-ORDINARIA 570D0E4A03C53811004D419B00000000000500000000000000500000000000000000002120026632016041301015W11 
02GONZALES PAREDES CARLOS AUGUST0002150030MAT-ORDINARIA 570D242CE91917110007BD6800000000000500000000000000500000000000000000003060026382016041301018I35 
02USHNAHUA SANCHEZ JOSE GABRIEL 0002140723MAT-ORDINARIA 570D0555E1B9091100FC246A00000000000700000000000000700000000000000000003060024702016041301018I44 
02ALVAREZ REATEGUI OLGA NADINNE 0002140665MAT-ORDINARIA 570D0B312FE2B8110055CCB000000000000500000000000000500000000000000000003060024452016041301018I35 
02CAMASCA DIAZ WENDY BRIDGET    0002120448MAT-ORDINARIA 570CBA4794A9561100B04BBE00000000000500000000000000500000000000000000003060022462016041301018I35 
02AGUIRRE EGOAVIL GUSTAVO ALFONS0002140001MAT-ORDINARIA 570CBA4694A9561100B0492900000000000500000000000000500000000000000000004380014152016041301060049 
02RODRIGUEZ PEREZ ANTONIO ALEJAN0002140055MAT-ORDINARIA 570D57CCCB5F454300FE8A6000000000000500000000000000500000000000000000004380011842016041301065795 
02ISIDRO JAIMES CARMEN          0002140128MAT-ORDINARIA 570D026E159131110026B9A800000000000500000000000000500000000000000000003060011512016041301018I42 
02RODRIGUEZ ARAUJO ANDREA LUISA 0002140054MAT-ORDINARIA 570D5898CB5F454300FE8A9300000000000500000000000000500000000000000000004380010552016041301066753 
02CARDENAS MEZARINO GONZALO ALFR0002140105MAT-ORDINARIA 570CBA4794A9561100B04AB200000000000500000000000000500000000000000000002120481242016041301015W11 
02TORRES PINEDO ERICK PAOLO     0002120311MAT-ORDINARIA 570D074C2FE2B8110055CA6F00000000000500000000000000500000000000000000004380470352016041301066707 
02FERNANDEZ PACAYA ANIBAL       0002150696MAT-ORDINARIA 570CBA4794A9561100B04A3000000000000700000000000000700000000000000000003060468792016041301018I48 
02RAFAEL NAVARRO DAVID ELIAS    0002140709MAT-ORDINARIA 570D2C0AAF956411000F40700000000000050000000000000050000000000000000000477046757201604130101D912 
02ZEVALLOS DEL AGUILA JHONY MAU 0002110235MAT-ORDINARIA 570CBA4794A9561100B049E600000000001900000000000001900000000000000000003060463772016041301018I39 
02ARTETA GOMEZ ANTHONY GUSTAVO  0002120227MAT-ORDINARIA 570CBA4794A9561100B04A1800000000001100000000000001100000000000000000002120461112016041301015W11 
02LOPEZ HUAMAN LUIS GERARD      0002130204MAT-ORDINARIA 570D59E64C66603A006915EE0000000000050000000000000050000000000000000000477046086201604130101D911 
02ALARCON CHAVEZ MERY SOLBY     0002140663MAT-ORDINARIA 570CF9CE74AEB911007A051A00000000000500000000000000500000000000000000003060459042016041301018I39 
02ANCHANTE ROJAS STEFANI        0002140005MAT-ORDINARIA 570D35D20106DA1100977A6000000000000500000000000000500000000000000000004380451782016041301067898 
02MORI RIOS JUNIOR FERNANDO     0002140038MAT-ORDINARIA 570D107803C53811004D41F700000000000500000000000000500000000000000000004380451472016041301066087 
02MUNOZ GONZALES ROSA LILIA     0002130608MAT-ORDINARIA 570D442D713715160066CC4300000000000500000000000000500000000000000000004380448282016041301069937 
02LEONARDO SHAHUANO ELVIS IVAN  0002110527MAT-ORDINARIA 570CBA4794A9561100B04AAE00000000000500000000000000500000000000000000004380442942016041301062414 
02RODRIGUEZ SALAZAR VERI GIOVANN0002150608MAT-ORDINARIA 570E46EC37F8FA2B00D5763600000000000500000000000000500000000000000000002120438502016041301015W11 
02TELLO PIZANGO CARLOS EDUARDO  0002140653MAT-ORDINARIA 570D287C43532F110030602500000000001100000000000001100000000000000000003060408692016041301018I3D 
02GONZALES RAMIREZ ADRIAN FRANCO0002150635MAT-ORDINARIA 570D07622FE2B8110055CA8200000000000900000000000000900000000000000000004380403092016041301062591 
02LUQUE MORALES JEYDY BRIGITH   0002150707MAT-ORDINARIA 570CBA4794A9561100B04ADE00000000001300000000000001300000000000000000004380396382016041301064513 
02OBLITAS RUIZ DANIEL           0002120690MAT-ORDINARIA 570D5D5CA2C9AF1600BD1FE800000000000500000000000000500000000000000000002120394132016041301015W1B 
02DIAZ CUMAPA XIMENA MAYTE      0002150691MAT-ORDINARIA 570CBA4794A9561100B04BEF00000000001100000000000001100000000000000000004380393442016041301060162 
02FLORES GUERRA CAROLINA ESTEPHA0002130755MAT-ORDINARIA 570D1A56C969D61100DCEE7500000000001700000000000001700000000000000000004380384162016041301065221 
02ALLER YUCRA GRECIA            0002140003MAT-ORDINARIA 570D16AAE13540110018F16700000000000500000000000000500000000000000000004380375532016041301066730 
02SERNA LOPEZ FLOR BEATRIZ      0002130252MAT-ORDINARIA 570D1985C969D61100DCEDB400000000000500000000000000500000000000000000004380367972016041301066240 
02LLAMOS TULUMBA LUIS MIGUEL    0002130768MAT-ORDINARIA 570CBA4794A9561100B04A2800000000000500000000000000500000000000000000002120366592016041301015W11 
02GONZALES MACEDO NEY EDWIN     0002090580MAT-ORDINARIA 570D285343532F110030600D00000000000500000000000000500000000000000000002120364152016041301015W11 
02DEL CASTILLO TAMANI ANA GABRIE0002150199MAT-ORDINARIA 570CBA4694A9561100B0477800000000000500000000000000500000000000000000004380361232016041301068400 
02LOPEZ GAVILAN NICOLAS         0002120056MAT-ORDINARIA 570CBA4594A9561100B046B300000000000500000000000000500000000000000000004389863362016041301060765 
02TORRES ALIAGA PATRICK REYNALDO0002130373MAT-ORDINARIA 570E4D405AAD4E790047D2FD00000000000500000000000000500000000000000000004389862202016041301063397 
02RENGIFO TORRES ROGER RODOLFO  0002110773MAT-ORDINARIA 570CF82D74AEB911007A049500000000000700000000000000700000000000000000004389860172016041301069744 
02RONCAL SILVANO CARLOS JESUS   0002110777MAT-ORDINARIA 570CEC9374AEB911007A022A00000000000700000000000000700000000000000000004389857802016041301062183 
02BELTRAN MELENDEZ CESAR FRANCIS0002050009MAT-ORDINARIA 570CBA4694A9561100B048E700000000000700000000000000700000000000000000003069853192016041301018I44 
02SEPULVEDA ARAOZ ROSA ISABEL   0002110046MAT-ORDINARIA 570D2276C76C88110059F0E60000000000070000000000000070000000000000000000477985189201604130101D911 
02SOTO NAVARRO CHRISTIAN PAOLO  0002130066MAT-ORDINARIA 570D29E75634D71100DA811700000000000500000000000000500000000000000000004389847642016041301062866 
02YARINGANO CESPEDES YULL JERRY 0002130074MAT-ORDINARIA 570E48B3C6805F70002EBAAB00000000000500000000000000500000000000000000004389846122016041301063600 
02VIENA ARMAS BRYHAM JHUNYOR S  0002100763MAT-ORDINARIA 570CBA4794A9561100B04A620000000000070000000000000070000000000000000000477984602201604130101D912 
02ROCHA RAMIREZ ANTHONY RAUL    0002120503MAT-ORDINARIA 570CBA4694A9561100B0479900000000000500000000000000500000000000000000003069831142016041301018I33 
02CHIPANA MAZA MIGUEL ANGEL     0002110010MAT-ORDINARIA 570CBA4694A9561100B0490800000000001100000000000001100000000000000000004389823002016041301068508 
02CHIPANA MAZA ANGEL GABRIEL    0002120456MAT-ORDINARIA 570CBA4794A9561100B049A000000000001500000000000001500000000000000000004389819882016041301068109 
02PONTONS HUANUCO ALEXANDRA AST 0002110036MAT-ORDINARIA 570CBA4694A9561100B0493900000000000500000000000000500000000000000000004389809752016041301062573 
02PONTONS HUANUCO GUILLERMO ALDA0002150142MAT-ORDINARIA 570CBA4694A9561100B048A300000000000700000000000000700000000000000000004389806932016041301065709 
02ESPINOZA MACHOA ROXANA VILMA  0002120035MAT-ORDINARIA 570CBA4794A9561100B04B1C00000000000500000000000000500000000000000000004389797982016041301061351 
02AREVALO LINARES SHEILA MAGALI 0002140094MAT-ORDINARIA 570D1C266ED24B110011AA4500000000000500000000000000500000000000000000004380332222016041301065625 
02SANDOVAL CERDAN DANYELO LARRY 0002110780MAT-ORDINARIA 570CF53174AEB911007A03C000000000000500000000000000500000000000000000003060329562016041301018I48 
02MERA MARINA DANIEL            0002150712MAT-ORDINARIA 570CBA4694A9561100B0473C0000000000050000000000000050000000000000000000477032847201604130101D911 
02LOMAS MACEDO MARKY LLOY       0002110190MAT-ORDINARIA 570CFC6429E48811006EACEE00000000000500000000000000500000000000000000002120328362016041301015W11 
02RODRIGUEZ BERNAL ROY EDUARDO  0002101052MAT-ORDINARIA 570CF9EA74AEB911007A053300000000000500000000000000500000000000000000003060327432016041301018I48 
02ALFARO MODENA JOSE ARISTIDES  0002150677MAT-ORDINARIA 570CBA4694A9561100B047870000000000050000000000000050000000000000000000477032742201604130101D911 
02ROJAS RAMIREZ ROBINSON MARIO  0002080284MAT-ORDINARIA 570D5272CB5F454300FE89FF00000000000700000000000000700000000000000000002120325562016041301015W11 
02REYES LAUREL ESTEPHANIA       0002110774MAT-ORDINARIA 570D054CE1B9091100FC246800000000000500000000000000500000000000000000003060325052016041301018I48 
02PANAIFO VILLAFANA JAZMINE ZOAR0002140254MAT-ORDINARIA 570CBA4794A9561100B04A780000000000050000000000000050000000000000000000477032401201604130101D911 
02VILLANUEVA GARCIA BRUNO JEFFER0002140291MAT-ORDINARIA 570D1AFEC969D61100DCEF020000000000050000000000000050000000000000000000477032260201604130101D911 
02CORIMANYA SALINAS CHRISTIAN PA0002120236MAT-ORDINARIA 570D329F689915110021A46800000000000500000000000000500000000000000000004380322312016041301065514 
02LIMA WONG MARIA TRINIDAD      0002150117MAT-ORDINARIA 570CBA4694A9561100B0474B00000000000500000000000000500000000000000000004380321492016041301060868 
02VASQUEZ TANCHIVA LLOGER       0002150073MAT-ORDINARIA 570D2C1BAF956411000F407500000000000500000000000000500000000000000000002120315482016041301015W1B 
02ARHUATA GONZALES RUTH DINA    0002150556MAT-ORDINARIA 570CBA4794A9561100B04BC800000000000500000000000000500000000000000000002120312512016041301015W1B 
02PADILLA PALOMINO ANDY         0002140143MAT-ORDINARIA 570E201AA079FE210075DF380000000000050000000000000050000000000000000000477030834201604130101D911 
02RODRIGUEZ BARTRA ANTHONY JAVIE0002130153MAT-ORDINARIA 570E1D8A0FDD331B00BD9E190000000000050000000000000050000000000000000000477030719201604130101D911 
02PADILLA PALOMINO MAYRA        0002130217MAT-ORDINARIA 570E1B6D58FB162B00B01D180000000000050000000000000050000000000000000000477030649201604130101D911 
02GALINDO BICERRA AURELIA XIMEN 0002110758MAT-ORDINARIA 570D595ECB5F454300FE8AB80000000000050000000000000050000000000000000000477030089201604130101D911 
02BICERRA CHAVEZ GRACIELA       0002150682MAT-ORDINARIA 570CBA4694A9561100B048140000000000050000000000000050000000000000000000477029917201604130101D911 
02MEZA LOPEZ MAYCOL LUIS        0002140036MAT-ORDINARIA 570D20AFC76C88110059EFCD00000000000500000000000000500000000000000000004380292822016041301060164 
02NOLASCO DIONICIO NATALIA SAYUR0002150052MAT-ORDINARIA 570CBA4694A9561100B0477E00000000000500000000000000500000000000000000004380290702016041301067768 
02VELASQUEZ NORIEGA DICXON LEONI0002140657MAT-ORDINARIA 570CF6CD74AEB911007A042200000000000500000000000000500000000000000000004380288082016041301061584 
02SARAVIA LUJAN ANNIE           0002130626MAT-ORDINARIA 570D6EAF16357831006A2F1200000000000500000000000000500000000000000000004380009552016041301060067 
02RUIZ REATEGUI RICARDO         0002100747MAT-ORDINARIA 570CBA4694A9561100B046F200000000000500000000000000500000000000000000003060009542016041301018I42 
02PAZ SOLDAN BONIFACIO JUAN CAR 0002101049MAT-ORDINARIA 570CEE1C74AEB911007A026500000000000500000000000000500000000000000000004380004652016041301064310 
02PAZ SOLDAN BONIFACIO SNAYDER Y0002150652MAT-ORDINARIA 570CE71874AEB911007A015700000000000500000000000000500000000000000000004380003712016041301067245 
02PANTIGOSO MEDRANO ABIGAIL     0002120383MAT-ORDINARIA 570E4A1FC6805F70002EBAB000000000000500000000000000500000000000000000004380001832016041301066335 
02SIMON BETETA SAMUEL BRUZ      0002120634MAT-ORDINARIA 570CBA4794A9561100B04BC000000000000500000000000000500000000000000000002129996262016041301015W1B 
02DONAYRE RIOS PAULO RENAN      0002140113MAT-ORDINARIA 570CBA4694A9561100B0488C00000000000500000000000000500000000000000000002129995212016041301015W1B 
02PINEDO TIMANA GEANNARY JHAMILE0002120281MAT-ORDINARIA 570CBA4794A9561100B04A2400000000000500000000000000500000000000000000004389994962016041301061849 
02URQUIA SOTO RUDY ALBERTO      0002120314MAT-ORDINARIA 570CBA4794A9561100B04A0E00000000000500000000000000500000000000000000004389994082016041301064829 
02ABREGU PUGA DELSY CARMINE     0002110432MAT-ORDINARIA 570CBA4794A9561100B04B7500000000000500000000000000500000000000000000002129992372016041301015W1B 
02VELA TORRES SERGIO LUIS       0002110483MAT-ORDINARIA 570CBA4794A9561100B04B5400000000000500000000000000500000000000000000002129991822016041301015W1B 
02SHERMULY AMASIFUEN JULIA EDITH0002090049MAT-ORDINARIA 570CBA4794A9561100B04A8800000000000500000000000000500000000000000000003069990842016041301018I39 
02DELGADO LAZARO CECILIA        0002110446MAT-ORDINARIA 570D1A67C969D61100DCEE8000000000000700000000000000700000000000000000002129990492016041301015W1B 
02ARMAS HERNANDEZ RONNY         0002140009MAT-ORDINARIA 570D1AA4C969D61100DCEEAC00000000000500000000000000500000000000000000004389989822016041301060168 
02REATEGUI CHISQUIPAMA ROCXI JES0002150149MAT-ORDINARIA 570D194DC969D61100DCED7900000000000500000000000000500000000000000000004389989562016041301069012 
02DOMINGUEZ PENA MAGDALY        0002120600MAT-ORDINARIA 570D1C106ED24B110011AA4100000000000500000000000000500000000000000000002129989032016041301015W1B 
02VALDEZ GAVILAN MARIVI         0002150169MAT-ORDINARIA 570CBA4694A9561100B0483400000000000500000000000000500000000000000000004389988182016041301069508 
02TAPULLIMA TAPULLIMA MARTHA    0002150164MAT-ORDINARIA 570CBA4694A9561100B0497300000000000500000000000000500000000000000000004389985822016041301065798 
02VASQUEZ VIDARTE ANDERSON JAVIE0002080810MAT-ORDINARIA 570D1E1373239611004615F000000000000500000000000000500000000000000000004389984152016041301064482 
02ZAMBRANO SALAS PATRICIA DEL PI0002090928MAT-ORDINARIA 570CBA4694A9561100B048E50000000000050000000000000050000000000000000000477997920201604130101D911 
02NAVARRO VARGAS YOJANY         0002150715MAT-ORDINARIA 570CBA4794A9561100B04A740000000000050000000000000050000000000000000000477997793201604130101D912 
02COTRINA HOYOS LEYDY THALIA    0002150568MAT-ORDINARIA 570CBA4794A9561100B04ABD00000000000500000000000000500000000000000000001109976282016041301013221 
02ROCHA SANGAMA CLAUDIA LUISA   0002120504MAT-ORDINARIA 570CBA4794A9561100B049B900000000000700000000000000700000000000000000002129969982016041301015W1B 
02ESTRADA LOPEZ URSULA YVETTE   0002140612MAT-ORDINARIA 570D6FC916357831006A2F2800000000000500000000000000500000000000000000002129968512016041301015W1B 
02JIMENEZ SANGAMA ROLLIN THOMAS 0002090799MAT-ORDINARIA 570E46134070108200E40ED300000000000500000000000000500000000000000000004389968272016041301061721 
02SU DONAYRE MAXIMO             0002120925MAT-ORDINARIA 570CBA4694A9561100B0471E00000000000500000000000000500000000000000000003069966912016041301018I44 
02FLORES HIDALGO ALYJANNY PIERIN0002140023MAT-ORDINARIA 570CF4EF74AEB911007A03B100000000000500000000000000500000000000000000004389961992016041301067544 
02VASQUEZ NOVOA HERSHEL FARID   0002120571MAT-ORDINARIA 570CBA4694A9561100B0477100000000000500000000000000500000000000000000002129957382016041301015W1B 
02SEDANO VELA AGAR EDUARD       0002150163MAT-ORDINARIA 570CBA4694A9561100B0475B00000000000500000000000000500000000000000000002339942802016041301016H14 
02ESTEBAN ESPINOZA WILDER AIRTON0002150203MAT-ORDINARIA 570CBA4594A9561100B0468600000000000500000000000000500000000000000000004389942252016041301061113 
02ROMERO LOPEZ WENDY            0002100742MAT-ORDINARIA 570CBA4694A9561100B047730000000000090000000000000090000000000000000000477994171201604130101D912 
02LUJAN NINA JONATHAN MAURO     0002090587MAT-ORDINARIA 570CBA4794A9561100B04A9700000000000700000000000000700000000000000000002129941582016041301015W1B 
02VALERA OCMIN ANNIE MILAGRO    0002150069MAT-ORDINARIA 570CBA4694A9561100B047950000000000050000000000000050000000000000000000477994063201604130101D912 
02PAREDES COLLANTES CHRISTIAN AD0002130045MAT-ORDINARIA 570CBA4794A9561100B04AA400000000000500000000000000500000000000000000004389937542016041301069932 
02AMACIFUEN YOSHIMURA DANA BRIGI0002140004MAT-ORDINARIA 570CBA4694A9561100B0475600000000000500000000000000500000000000000000004389936322016041301062306 
02RUIZ TUESTA GLADYS ANDREA     0002140062MAT-ORDINARIA 570CBA4694A9561100B048B100000000000500000000000000500000000000000000004389934002016041301067733 
02LINGUIS PEREZ HUGO ALEXANDER  0002130038MAT-ORDINARIA 570CBA4594A9561100B0467300000000000700000000000000700000000000000000003069933222016041301018I42 
02VELA COLLAZOS RENZO FERNANDO  0002140082MAT-ORDINARIA 570CBA4594A9561100B0469C00000000000500000000000000500000000000000000003069932022016041301018I42 
02OCHOA CABREJOS JEYSON FRANCHES0002140041MAT-ORDINARIA 570CF7DB74AEB911007A046700000000000500000000000000500000000000000000004389931752016041301063185 
02SATO RUIZ MARGARITA HAYUMI    0002090920MAT-ORDINARIA 570CFA3D74AEB911007A054B00000000000500000000000000500000000000000000004389930102016041301063178 
02ZEGARRA REATEGUI JOSH GILBERTO0002080813MAT-ORDINARIA 570D1926C969D61100DCED5700000000000500000000000000500000000000000000004389928232016041301068245 
02TUCTO CASTILLO THALIA ARACELY 0002150167MAT-ORDINARIA 570D4BDBAF95513100D1A1BD00000000000500000000000000500000000000000000002129927192016041301015W1B 
02RIVERA SUAREZ LILIA MAYLI     0002150781MAT-ORDINARIA 570D3C64DF4E30110015EA260000000000050000000000000050000000000000000000477992716201604130101D912 
02RIOS RODRIGUEZ PERCY JOEL     0002140829MAT-ORDINARIA 570D1AE0C969D61100DCEEE500000000000500000000000000500000000000000000004389926312016041301062960 
02PORTAL FASANANDO OCTAVIO      0002120492MAT-ORDINARIA 570D6361A8C7FB1B00A90BCB00000000000500000000000000500000000000000000002129923162016041301015W1B 
02HINOSTROZA SINCHE BRYAN       0002140029MAT-ORDINARIA 570CBA4694A9561100B0497B00000000000500000000000000500000000000000000004389923152016041301069039 
02LOPEZ VASQUEZ FRANCO FREDY    0002150585MAT-ORDINARIA 570D48853D736E2800F7878D00000000000500000000000000500000000000000000002129917322016041301015W1B 
02GONZALEZ YJUMA HENRY MIGUEL   0002140802MAT-ORDINARIA 570CBA4594A9561100B046A600000000000500000000000000500000000000000000004389914092016041301061954 
02SOLSOL RODRIGUEZ KAREN        0002130731MAT-ORDINARIA 570D450A713715160066CC8E00000000000700000000000000700000000000000000004389907882016041301063251 
02ROJAS COLLAZOS ABEL           0002120291MAT-ORDINARIA 570CBA4794A9561100B0498E00000000000500000000000000500000000000000000004389901662016041301068383 
02RUIZ LINARES LIZ PILAR        0002130246MAT-ORDINARIA 570D0341159131110026BA6900000000000500000000000000500000000000000000004389898232016041301069343 
02SANCHEZ HIDALGO CARLOS FELIPE 0002140271MAT-ORDINARIA 570D0493E1B9091100FC240F0000000000050000000000000050000000000000000000477989375201604130101D911 
02ARCOS BINDER CAROL MELANI     0002120006MAT-ORDINARIA 570D07862FE2B8110055CA9E0000000000050000000000000050000000000000000000477989274201604130101D911 
02SANCHEZ NEYRA MARIO ALBERTO   0002120710MAT-ORDINARIA 570D2A605634D71100DA815900000000000500000000000000500000000000000000003069892472016041301018I42 
02VEINTEMILLA CAMARGO DIEGO ARTU0002120317MAT-ORDINARIA 570CEEF774AEB911007A029800000000001100000000000001100000000000000000003069888312016041301018I42 
02VEINTEMILLA CAMARGO KRISTHIAN 0002101062MAT-ORDINARIA 570CBA4794A9561100B04A3500000000000500000000000000500000000000000000003069886732016041301018I42 
02ARELLANO VEINTEMILLA ELMER AX 0002100003MAT-ORDINARIA 570CBA4694A9561100B0494800000000000700000000000000700000000000000000003069885412016041301018I42 
02NAHUATUPE RENGIFO TREISY      0002130776MAT-ORDINARIA 570D03B2159131110026BAB700000000000900000000000000900000000000000000003069884472016041301018I33 
02NUNEZ GARCIA JUAN MANUEL      0002110534MAT-ORDINARIA 570CBA4694A9561100B046FB00000000000700000000000000700000000000000000003069882712016041301018I33 
02TAMAYO DENEGRI AURA ALICIA    0002150669MAT-ORDINARIA 570D19BFC969D61100DCEDFE0000000000050000000000000050000000000000000000827988188201604130101MZ12 
02FUENTES AHUANARI QUETY ESTEFAN0002150207MAT-ORDINARIA 570CBA4694A9561100B049180000000000050000000000000050000000000000000000477987697201604130101D911 
02CASTRO PIRO WALTER DAVID      0002130746MAT-ORDINARIA 570CBA4794A9561100B049A800000000000500000000000000500000000000000000004389876642016041301069184 
02NEYRA RODRIGUEZ JOSE AXEL     0002150823MAT-ORDINARIA 570D0410E1B9091100FC23BE0000000000050000000000000050000000000000000000477987209201604130101D912 
03000000292000000001722000000000001722000000000000000000                                                                                                
