0120154598244556PEN20160414001103060100032108                                                                                                           
02PEREZ RODRIGUEZ JOSSELYN MAGAL0002150138MAT-ORDINARIA 570EA310493EF51B006D43B000000000001500000000000001500000000000000000004381668382016041401064515 
02ARAUJO BERROSPI LEYLA ESTEFANI0002150084MAT-ORDINARIA 570CBA4794A9561100B04BB000000000000500000000000000500000000000000000004381657062016041401064680 
02MIRANDA RUIZ PAULO LEANDRO    0002150130MAT-ORDINARIA 570D20BAC76C88110059EFD100000000000700000000000000700000000000000000004381655542016041401064927 
02QUISPE MORIANO EYMER LUIS     0002150657MAT-ORDINARIA 570FA792A645CB1B004CB73D00000000000500000000000000500000000000000000004381622582016041401063345 
02FLORES DIAZ LUIS ROMULO       0002130754MAT-ORDINARIA 570D228FC76C88110059F0F10000000000070000000000000070000000000000000000439161917201604140101C71C 
02DIAZ CORDOVA JULIO ANTONY     0002130751MAT-ORDINARIA 570D2DC9D01BB011003BBB320000000000050000000000000050000000000000000000439161795201604140101C71C 
02GERBI PALOMINO CLAUDIA ROMINA 0002140894MAT-ORDINARIA 570FAB52F1769A1600C016A20000000000050000000000000050000000000000000000477161365201604140101D911 
02BARBARAN DAVILA DAMARIS JEAMI 0002100681MAT-ORDINARIA 570CBA4794A9561100B04AEC00000000000500000000000000500000000000000000004381598782016041401067841 
02VELA JAVE LUIS ENRIQUE        0002150370MAT-ORDINARIA 570EE240E516AD160077401700000000000900000000000000900000000000000000003061594482016041401018I35 
02POVIS ANTARA KAILA DALILA     0002130552MAT-ORDINARIA 570FC06B806E91160091D98900000000000500000000000000500000000000000000002121586172016041401015W11 
02REFULIO DAVILA PATRICIA MILAGR0002120837MAT-ORDINARIA 570ED63EBB34331B0068508D00000000000500000000000000500000000000000000004381585142016041401061939 
02FLORES AMASIFUEN BRENDA MILAGR0002130753MAT-ORDINARIA 570FC24968EEF71600D4FA8F00000000000500000000000000500000000000000000002121571422016041401015W11 
02ZEVALLOS TAVERA CRISTHIAN MARC0002150374MAT-ORDINARIA 570FBB059660AF2800AE2D3900000000000500000000000000500000000000000000004381570062016041401069449 
02BERNAL RUIZ FRANCIS SEGUNDO   0002130088MAT-ORDINARIA 570CBA4794A9561100B04AE700000000000500000000000000500000000000000000004381569192016041401062378 
02TORRES PENAHERRERA JOHNNY ALEX0002140282MAT-ORDINARIA 570D57B54C66603A0069158900000000000500000000000000500000000000000000004381558472016041401061820 
02VALERA CERRON LUIGUI POOL     0002120851MAT-ORDINARIA 570FC273C569791B0014F40C00000000000700000000000000700000000000000000004381557042016041401061130 
02VALERA CERRON MELODY POULETTE 0002150970MAT-ORDINARIA 570FC6726978B71B00CF08C100000000000500000000000000500000000000000000004381556162016041401063585 
02SAJAMI MARICHE ALDO LUIS      0002150785MAT-ORDINARIA 570CFF7429E48811006EADF30000000000050000000000000050000000000000000000477117557201604140101D911 
02TACURI SOLANO SONIA MARIA     0002120927MAT-ORDINARIA 570E61773687E030007335B900000000000500000000000000500000000000000000004381171892016041401063452 
02SALAZAR MACEDO ANTONY         0002140378MAT-ORDINARIA 570E88180360181600E2B5B500000000000500000000000000500000000000000000004381163362016041401062065 
02RIOS RIVERA ADILIA            0002130362MAT-ORDINARIA 570E43755DC2812200048AF80000000000070000000000000070000000000000000000477116069201604140101D911 
02LOPEZ PINEDO MARLENE SUSY     0002130602MAT-ORDINARIA 570D738B16357831006A2F880000000000050000000000000050000000000000000000477115960201604140101D912 
02DA CRUZ TRIGOSO PAMELA MERCEDE0002150881MAT-ORDINARIA 570F982EF8865E1B0073299E0000000000050000000000000050000000000000000000477115709201604140101D912 
02MACHACUAY YACOLCA FRANK KEVIN 0002120818MAT-ORDINARIA 570E9E6AEEDA091B001BFD1400000000000500000000000000500000000000000000004381155742016041401069802 
02ROCA MAYORA JOSE MARIA        0002010446MAT-ORDINARIA 570E5F158C47C12600AD4E7D00000000000500000000000000500000000000000000002121155342016041401015W1B 
02MARQUINA ALEGRIA CLAUDIA BEAT 0002110676MAT-ORDINARIA 570E6DCC469C1D2F0071B36C00000000000500000000000000500000000000000000004381153992016041401068924 
02SALOME REATEGUI JESSICA       0002090619MAT-ORDINARIA 570D2FD2D2FEB11100F237DD00000000000500000000000000500000000000000000004381135562016041401062839 
02SERRANO ADVINCULA KEVIN       0002140068MAT-ORDINARIA 570E819E1EF27C3A00048FE50000000000050000000000000050000000000000000000827113365201604140101MZ13 
02UTIA ROMERO CHRISTIAN BENEDICT0002150791MAT-ORDINARIA 570D2F71D2FEB11100F237B300000000000500000000000000500000000000000000002121132942016041401015W1B 
02NAHUATUPE PINEDO ANTONIA HERCI0002130775MAT-ORDINARIA 570CBA4794A9561100B04B8100000000000500000000000000500000000000000000003061132502016041401018I31 
02GOMEZ LOPEZ SOLEY             0002100286MAT-ORDINARIA 570E5BA30D3A123000F3B2420000000000050000000000000050000000000000000000477112945201604140101D911 
02IBARRA ONOFRE ISAIAS          0002150340MAT-ORDINARIA 570E6355D17351350097566B00000000000500000000000000500000000000000000004381120172016041401062290 
02GRATTELLI MICHELENA SCARLETH  0002140804MAT-ORDINARIA 570EA6E923B8F416007F3DB800000000000500000000000000500000000000000000004381120212016041401062463 
02LAZARO DAVILA JEAN CARLOS     0002130037MAT-ORDINARIA 570D0562E1B9091100FC247500000000000700000000000000700000000000000000002121117812016041401015W1B 
02MELENDEZ VASQUEZ ED           0002120866MAT-ORDINARIA 570D186CC969D61100DCEC9900000000000900000000000000900000000000000000003061112452016041401018I39 
02DIAZ MARTINEZ DIANA CAROLINA  0002150888MAT-ORDINARIA 570F952886A7CC1600BFC99E00000000000500000000000000500000000000000000004381111722016041401066322 
02GARCIA FERREYRA ALLISON ASTRID0002150575MAT-ORDINARIA 570D198DC969D61100DCEDC300000000001700000000000001700000000000000000004381106972016041401066588 
02HUAMAN AYALA CRISTEL MADELEY  0002150907MAT-ORDINARIA 570E5C2508DEFE35003E918A00000000000500000000000000500000000000000000003061099792016041401018I44 
02YANCAPALLO CCACAHUACCHA NOEMI 0002100069MAT-ORDINARIA 570D6F498BD7D31B000234E100000000000900000000000000900000000000000000004381095482016041401061803 
02AREVALO SHAPIAMA LINDA EMERI  0002120008MAT-ORDINARIA 570E91ED0360181600E2B5DD00000000000500000000000000500000000000000000004381085252016041401066210 
02CANALES PONCE GIAN LUCA       0002150383MAT-ORDINARIA 570EC1055FBF9F1600F2FF4800000000000500000000000000500000000000000000003061083992016041401018I33 
02AMBROCIO MACEDO MARIA CHRISTIN0002150858MAT-ORDINARIA 570F9A6E86A7CC1600BFCA2000000000000500000000000000500000000000000000004381082762016041401067346 
02SANCHEZ MATHEWS LINDA GIANELLA0002120709MAT-ORDINARIA 570E7C5C0A5A0826005B254500000000000700000000000000700000000000000000003061068632016041401018I42 
02SANDOVAL MANANITA LUIS ALBERTO0002120298MAT-ORDINARIA 570D58F44C66603A006915CC00000000000500000000000000500000000000000000004381060112016041401060177 
02GARCIA CARRILLO JHONATAN      0002120252MAT-ORDINARIA 570CBA4794A9561100B04A8400000000000500000000000000500000000000000000004381057942016041401066574 
02CHICHIPE CANAYO MINELY KARINA 0002140608MAT-ORDINARIA 570CBA4794A9561100B04A9500000000000500000000000000500000000000000000002121055092016041401015W1B 
02HUARAC TAFUR KATE DIVANA      0002140808MAT-ORDINARIA 570EE366D11EF21600775C4D00000000000500000000000000500000000000000000004381052402016041401063982 
02FASABI REVIER MILUSKA ACELA   0002141009MAT-ORDINARIA 570E5B0708DEFE35003E918600000000000500000000000000500000000000000000004381051402016041401067682 
02ALVA VASQUEZ DANIEL BRYAN     0002140782MAT-ORDINARIA 570EEDF3BC6CD71B003CC84000000000000500000000000000500000000000000000004381051002016041401065034 
02FERNANDEZ HUAYTA JOAO RAUL    0002120246MAT-ORDINARIA 570D2C1FAF956411000F407B00000000000500000000000000500000000000000000004381049452016041401064589 
02ECHEVARRIA PENA EDYLAI GINETH 0002140886MAT-ORDINARIA 570F97C386A7CC1600BFC9DA00000000000500000000000000500000000000000000004381048852016041401060978 
02SILVA LACHUMA LIZ STEPHANIE   0002140651MAT-ORDINARIA 570F93A886A7CC1600BFC98F00000000000900000000000000900000000000000000004381046912016041401069748 
02HOYOS PENA KARLA ELIZABETH    0002140616MAT-ORDINARIA 570E59022CD5BC2100A3E99A00000000000700000000000000700000000000000000004381045542016041401060637 
02HUAYABA IJUMA NILO            0002130597MAT-ORDINARIA 570E62B9D3D5E21600F85F3D0000000000090000000000000090000000000000000000477141499201604140101D911 
02VARGAS ROMAINA PERLA ESPERANZA0002150368MAT-ORDINARIA 570E878E8D263C1B0053BEEF00000000000700000000000000700000000000000000004381414092016041401067138 
02MENESES BRAVO CANDY CARITO    0002130606MAT-ORDINARIA 570E50D9CFE0375E0084579F0000000000070000000000000070000000000000000000477141408201604140101D911 
02RUIZ PEZO MANUEL              0002140957MAT-ORDINARIA 570F992786A7CC1600BFCA0A00000000000500000000000000500000000000000000002121408932016041401015W1B 
02DOMINGUEZ ORNETA LUZ ESTHEFANY0002150570MAT-ORDINARIA 570EAE5E23B8F416007F3DF200000000000500000000000000500000000000000000002121355292016041401015W1B 
02PERALTA MEZA WILMER           0002140363MAT-ORDINARIA 570E5C72678FC32B005008DA00000000000700000000000000700000000000000000004381328382016041401068025 
02GARCIA VARGAS GIANNI KEVIN    0002130410MAT-ORDINARIA 570F8F3EF8865E1B0073293900000000000500000000000000500000000000000000004381324242016041401066685 
02ENCINAS CANAYO KISVERY LESLIE 0002150571MAT-ORDINARIA 570CBA4794A9561100B04B6100000000000500000000000000500000000000000000004381318712016041401065708 
02ENCINAS CANAYO JENIFFER ALESKA0002130985MAT-ORDINARIA 570CBA4694A9561100B0493500000000000500000000000000500000000000000000004381317052016041401062670 
02MESIAS GALVEZ ANGELO          0002150591MAT-ORDINARIA 570E90880360181600E2B5C900000000000500000000000000500000000000000000002121317082016041401015W1B 
02HUBECK MENDOZA JERSON JOHAN   0002130766MAT-ORDINARIA 570E5AF72CD5BC2100A3E9A100000000000500000000000000500000000000000000004381316082016041401064312 
02DAVILA MOZOMBITE DENYS ALBERTO0002130317MAT-ORDINARIA 570EBF2F6A6C211600F24E0600000000000500000000000000500000000000000000002121315322016041401015W1B 
02SUAREZ MEZA HENRY POOL        0002100063MAT-ORDINARIA 570E507B3929086700FB107D00000000001500000000000001500000000000000000004381312612016041401069135 
02RUIZ RIOS FRAN MIGUEL         0002100056MAT-ORDINARIA 570EC55A6A6C211600F24E2E00000000000500000000000000500000000000000000004381310692016041401064411 
02GUERRERO GALLEGOS FIORELLA    0002150902MAT-ORDINARIA 570F9A04F8865E1B007329E000000000000500000000000000500000000000000000002121308712016041401015W1B 
02CUAYLA TORRES INDIRA MELANIA  0002140874MAT-ORDINARIA 570FCA40E0980F1B004F72FE00000000000500000000000000500000000000000000004382110302016041401068358 
02VILLACORTA CORDOVA ERICK GUSTA0002140780MAT-ORDINARIA 570D0B3B2FE2B8110055CCB800000000000700000000000000700000000000000000004382182562016041401069185 
02MORI PAREDES STEFANNY KATE    0002140923MAT-ORDINARIA 570FAB5FA645CB1B004CB7CF00000000000500000000000000500000000000000000004382047412016041401067875 
02RIOS OLIVEIRA KEVY HANS       0002120177MAT-ORDINARIA 570FD0EA97E5911B005CF5F300000000000500000000000000500000000000000000004382030892016041401061655 
02PECHO SCHRADER ANGELICA       0002140044MAT-ORDINARIA 570D4461713715160066CC5E00000000000500000000000000500000000000000000004381527622016041401064787 
02DAVILA PAIMA LILY MARGOTH     0002110256MAT-ORDINARIA 570ED43DE516AD1600773FE900000000000500000000000000500000000000000000004381522782016041401062950 
02GUERRERO RUIZ MARA JANIRA     0002140896MAT-ORDINARIA 570F98C7F8865E1B007329B200000000000500000000000000500000000000000000002121503042016041401015W11 
02CORREA MARTEL JUNIOR ABELARDO 0002120805MAT-ORDINARIA 570E9F4DDB73ED310085873E00000000000500000000000000500000000000000000002121485512016041401015W11 
02POLO QUISPE JOSE LUIS         0002120831MAT-ORDINARIA 570E9B1CDB73ED310085873400000000000500000000000000500000000000000000002121484492016041401015W11 
02SEIJAS TELLO XIOMARA SALVITH  0002140383MAT-ORDINARIA 570E4653D21CCC5E006F464200000000000700000000000000700000000000000000004381477312016041401064960 
02TUESTA VARGAS BORIS JOEL      0002140388MAT-ORDINARIA 570EC8A64CC7E21B00EF2B7C00000000000500000000000000500000000000000000004381476172016041401064304 
02SANCHEZ TRIGOZO MARLO WIDMER  0002100342MAT-ORDINARIA 570E8EECD26B9D1B0020C41B00000000000900000000000000900000000000000000004381464262016041401060340 
02DEL AGUILA GOMEZ FRANCK RAFAEL0002140682MAT-ORDINARIA 570CBA4794A9561100B0499A0000000000050000000000000050000000000000000000477145308201604140101D911 
02PEREZ QUIROZ DANNA CAROLINA   0002100045MAT-ORDINARIA 570E75020B4AEA2500EC939E00000000000500000000000000500000000000000000003061440732016041401018I39 
02GRATELLY VIENA IRIS CRISEIDA  0002130116MAT-ORDINARIA 570D22B5C76C88110059F10500000000000500000000000000500000000000000000002121901592016041401015W11 
02CABRERA ASPAJO ROMARIO BEBETO 0002120232MAT-ORDINARIA 570D1977C969D61100DCEDA300000000000500000000000000500000000000000000002121899602016041401015W11 
02TORRES LOZANO ATENAS          0002140074MAT-ORDINARIA 570E65AE300C4F5E00515CE200000000000700000000000000700000000000000000004381872182016041401064151 
02RODRIGUEZ FLORES JEANNETTE JEA0002120409MAT-ORDINARIA 570FD286FDE7E61B00A7686600000000000500000000000000500000000000000000004381848252016041401062321 
02SALAS HUAMAN ELIANA BEATRIZ   0002140270MAT-ORDINARIA 570EDB92E516AD160077400200000000001100000000000001100000000000000000004381040942016041401061936 
02HUAMAN MACHUCA JOSE JAIRO     0002130333MAT-ORDINARIA 570E5AC6678FC32B005008D600000000000500000000000000500000000000000000002121028102016041401015W1B 
02TAFUR RODRIGUEZ JOSE JULIO    0002140071MAT-ORDINARIA 570EC1EB6A6C211600F24E1800000000000900000000000000900000000000000000004381024052016041401067438 
02REYES MEZA ANTONY ANDRES      0002090610MAT-ORDINARIA 570E265AD7513316003D937400000000000500000000000000500000000000000000004381022372016041401064231 
02SOUZA DIAZ IRIS ISIS          0002110552MAT-ORDINARIA 570E24589F25C8350021905700000000000500000000000000500000000000000000004381020372016041401061285 
02SOLSOL MACEDO IAN             0002130797MAT-ORDINARIA 570CF27474AEB911007A033800000000000500000000000000500000000000000000004380997192016041401060261 
02DELGADO GONZALES SANDRA MARGOT0002120858MAT-ORDINARIA 570D1A3EC969D61100DCEE6200000000000500000000000000500000000000000000004380977822016041401066165 
02ALANIA CANCHORICRA LUIS MIGUEL0002140321MAT-ORDINARIA 570E42415DC2812200048AF400000000000500000000000000500000000000000000004380972182016041401069880 
02CANAYO SANGAMA ANDREA         0002150561MAT-ORDINARIA 570E4D263929086700FB106F00000000000500000000000000500000000000000000004380968522016041401064216 
02CUYUBAMBA NUNEZ ASTRID BEATRIZ0002090895MAT-ORDINARIA 570D28E843532F110030605400000000000700000000000000700000000000000000002120965212016041401015W1B 
02DEL AGUILA VIDAL JOSUE CALEB  0002120030MAT-ORDINARIA 570CBA4794A9561100B04BE600000000000500000000000000500000000000000000004380963622016041401066894 
02ASPAJO VASQUEZ SADITH         0002140599MAT-ORDINARIA 570E4155BB549539002FD91B00000000000500000000000000500000000000000000002120962252016041401015W1B 
02QUIO MONTALVO MARIO GERALD    0002140047MAT-ORDINARIA 570D2462E91917110007BD8000000000000500000000000000500000000000000000004380955942016041401069701 
02MONTES RENGIFO DIEGO WALDIR   0002140037MAT-ORDINARIA 570CFA6874AEB911007A056000000000000500000000000000500000000000000000004380954182016041401060296 
02PARIONA ESPINOZA YURI IVAN    0002130142MAT-ORDINARIA 570CBA4794A9561100B04AF900000000000500000000000000500000000000000000004380950152016041401069077 
02CASTILLO CASTAGNE JORGE GIUSSE0002120660MAT-ORDINARIA 570CE81274AEB911007A018000000000000500000000000000500000000000000000004380922622016041401062196 
02MUNOZ ORIHUELA ELARD ERIK     0002140039MAT-ORDINARIA 570D22CEC76C88110059F10900000000000500000000000000500000000000000000003061298002016041401018I31 
02FLORES BLASCO JEAN CARLO      0002140114MAT-ORDINARIA 570CBA4794A9561100B04BCA00000000000500000000000000500000000000000000004381290622016041401065406 
02PIZANGO URQUIA ROBERT JUNIOR  0002150140MAT-ORDINARIA 570CBA4794A9561100B04AFD00000000001900000000000001900000000000000000003061286972016041401018I33 
02RODRIGUEZ BERNA PAOLA GABRIELA0002120703MAT-ORDINARIA 570CBA4794A9561100B04B0E00000000000500000000000000500000000000000000002121286872016041401015W1B 
02DELGADO SAENZ JORGE ALONSO    0002120665MAT-ORDINARIA 570CBA4794A9561100B04B2C00000000000500000000000000500000000000000000002121285962016041401015W1B 
02ALTAMIRANO VELA ERICK         0002120650MAT-ORDINARIA 570CBA4694A9561100B0497700000000000500000000000000500000000000000000002121284692016041401015W1B 
02HUAMAN QUINTO YULISA YUSELI   0002140126MAT-ORDINARIA 570CBA4794A9561100B04A2000000000000500000000000000500000000000000000004381272772016041401068640 
02FLORES CAVERO EGUSQUIZA GERALD0002140561MAT-ORDINARIA 570E78491063C71600F0EB4500000000000500000000000000500000000000000000004381271442016041401068952 
02TUESTA LEYTON DAVID REYNALDO  0002090840MAT-ORDINARIA 570EAAB6493EF51B006D43C100000000000700000000000000700000000000000000004381261002016041401062092 
02ZURITA ZELADA IMELDA MARILU   0002130506MAT-ORDINARIA 570E6321D3D5E21600F85F4200000000000500000000000000500000000000000000004381258002016041401060540 
02INCHAUSTEGUI MORENO ALLISON   0002110525MAT-ORDINARIA 570D03DD159131110026BAD40000000000070000000000000070000000000000000000439125016201604140101C71C 
02TUESTA LEYTON DANIEL YANKUNG  0002140386MAT-ORDINARIA 570E3A215DC2812200048AED00000000000700000000000000700000000000000000004381246662016041401069978 
02GUERRERO CUEVAS JUAN YERSINIO 0002130329MAT-ORDINARIA 570F9A7AF8865E1B007329E300000000000500000000000000500000000000000000004381234562016041401064894 
02BARDALES PEREZ VICTOR ANDRES  0002120011MAT-ORDINARIA 570CBA4694A9561100B0481A00000000000500000000000000500000000000000000004381232392016041401067174 
02CUBAS RUIZ YAJAIRA MARICIELO  0002150387MAT-ORDINARIA 570EE5E0EAB3DE2800E166F500000000000700000000000000700000000000000000004381227502016041401064403 
02OLLERO FABIAN KLARCK KEVIN    0002130779MAT-ORDINARIA 570CFB4029E48811006EAC8D00000000000900000000000000900000000000000000002121225272016041401015W1B 
02JIMENEZ LOPEZ CESAR AUGUSTO   0002130767MAT-ORDINARIA 570CBA4694A9561100B048AA00000000000700000000000000700000000000000000002121223612016041401015W1B 
02LUJAN HUAMANTINCO JUAN CARLOS 0002130422MAT-ORDINARIA 570F8AA3F8865E1B0073292F00000000001900000000000001900000000000000000004381217532016041401061698 
02TORRES ROBLES MARISA ELENA    0002140075MAT-ORDINARIA 570E518BD8F4BC3500ECD47A00000000000700000000000000700000000000000000004381207212016041401062479 
02DAVILA SCHRADER PERLITA       0002130749MAT-ORDINARIA 570CBA4694A9561100B0471400000000000500000000000000500000000000000000004381206882016041401069884 
02VEGA SORIA DARWIN ALEJANDRO   0002150855MAT-ORDINARIA 570E74C453431A3000DD206B00000000000500000000000000500000000000000000004381203162016041401062189 
02APAGUENO MARTINEZ RUTH NOEMI  0002150678MAT-ORDINARIA 570CBA4694A9561100B0487200000000000500000000000000500000000000000000004381197412016041401061311 
02PEZO MARIN PIERO BRAYAN       0002140364MAT-ORDINARIA 570ED53BE516AD1600773FF40000000000050000000000000050000000000000000000477119341201604140101D912 
02SAMBRANO REATEGUI ROY EMIER   0002150251MAT-ORDINARIA 570CBA4794A9561100B04BC400000000000500000000000000500000000000000000003061185792016041401018I39 
02ZARBE TORRES RIDER SLEITHER   0002130386MAT-ORDINARIA 570EC2F35DF79D1B009B5C3C00000000000700000000000000700000000000000000004381183822016041401062262 
02ABANTO SALDANA KAREN          0002090203MAT-ORDINARIA 570E6253300C4F5E00515CD500000000000500000000000000500000000000000000002121183002016041401015W1B 
02VILLACORTA PORTOCARRERO AYRTON0002130385MAT-ORDINARIA 570EC4644CC7E21B00EF2B6E00000000000500000000000000500000000000000000004381182342016041401061819 
02OROSCO CHOCCE CARLOS MIGUEL   0002150772MAT-ORDINARIA 570CFD9429E48811006EAD580000000000070000000000000070000000000000000000477117728201604140101D911 
02GARCIA RENGIFO JIM SAU        0002130857MAT-ORDINARIA 570FD334FDE7E61B00A768790000000000050000000000000050000000000000000000439181280201604140101C71C 
02FLORES PAUCAR LUIS ANDRES     0002130409MAT-ORDINARIA 570F870BF8865E1B0073291A00000000001100000000000001100000000000000000004381791982016041401064219 
02CORDERO VASQUEZ ANDY RENZO    0002130403MAT-ORDINARIA 570FD3DE30658D160097FAD700000000000700000000000000700000000000000000004381787872016041401065682 
02GUEVARA GONZALES IAN MANUEL   0002130414MAT-ORDINARIA 570FCDF0F006D3160054136D00000000000900000000000000900000000000000000004381786002016041401063268 
02VENEGAS VEGA DELICIA          0002120439MAT-ORDINARIA 570FBA969660AF2800AE2CF300000000000500000000000000500000000000000000004381779972016041401066446 
02CHINO LURITA PIERR DANIEL     0002120801MAT-ORDINARIA 570F9C90F8865E1B00732A130000000000050000000000000050000000000000000000439177807201604140101C71C 
02PEREZ PEREZ GERONIMO          0002120828MAT-ORDINARIA 570FCC211447F34C00F9BF0C0000000000070000000000000070000000000000000000439177627201604140101C71C 
02SALVATIERRA CHANCA JACK IVAN  0002110549MAT-ORDINARIA 570CF69D74AEB911007A040B00000000000500000000000000500000000000000000003061761942016041401018I48 
02RIOS RUIZ LUIGGY ALFONSO      0002140052MAT-ORDINARIA 570E5B753687E030007335A700000000001900000000000001900000000000000000002121760332016041401015W11 
02DIAZ CHOTA DIEGO VALENTIN     0002130750MAT-ORDINARIA 570CBA4694A9561100B0485700000000000500000000000000500000000000000000003061752672016041401018I3B 
02MALDONADO VARGAS KAREN STEFANI0002140439MAT-ORDINARIA 570EA2BDEEDA091B001BFD2D00000000000500000000000000500000000000000000002121743512016041401015W1B 
02GOMEZ MACEDO CLAUDIA ROXANA   0002140425MAT-ORDINARIA 570EA2BEEEDA091B001BFD2F00000000000900000000000000900000000000000000002121741822016041401015W1B 
02SALDANA ETENE JOSSY           0002010156MAT-ORDINARIA 570E7522D2F10C26007CD42400000000000500000000000000500000000000000000004381741502016041401064313 
02CESPEDES GUEVARA BRYAN        0002130747MAT-ORDINARIA 570D56BDCB5F454300FE8A1D00000000000500000000000000500000000000000000004381729542016041401064502 
02ENRIQUEZ RODRIGUEZ ARQUIMEDES 0002120242MAT-ORDINARIA 570CE78674AEB911007A016B00000000000500000000000000500000000000000000004381729172016041401061820 
02RIVERA RUIZ MISSLY LINETH     0002130906MAT-ORDINARIA 570FCE6F97E5911B005CF5E100000000000500000000000000500000000000000000004381724972016041401064576 
02MEZA LUCERO MANUEL ENRIQUE    0002130876MAT-ORDINARIA 570FBE873FC0291B00A786EE00000000000500000000000000500000000000000000004381723342016041401064708 
02RODRIGUEZ CORREA BRIAN MARCELO0002150154MAT-ORDINARIA 570FDCE4FCDFF116001DB82C0000000000050000000000000050000000000000000000477172321201604140101D912 
02SANTILLAN VASQUEZ MILAGROS DEL0002120567MAT-ORDINARIA 570D18CCC969D61100DCED010000000000050000000000000050000000000000000000477170568201604140101D911 
02ROSARIO CADILLO STEFANY JASMIN0002150956MAT-ORDINARIA 570FC882E0980F1B004F72AA0000000000050000000000000050000000000000000000439170556201604140101C71C 
02DIAZ MARQUEZ JHERMY GABRIELA  0002150887MAT-ORDINARIA 570F9225F8865E1B0073295100000000000500000000000000500000000000000000004381699472016041401067897 
02VENTURA ARROYO IDICO          0002080314MAT-ORDINARIA 570EE985BC6CD71B003CC83800000000001100000000000001100000000000000000002121695392016041401015W1B 
02VILLANUEVA PIZANGO DIEGO LUIS 0002150268MAT-ORDINARIA 570CFA6874AEB911007A056200000000000500000000000000500000000000000000002121693992016041401015W1B 
03000000153000000000945000000000000945000000000000000000                                                                                               