0120154598244000PEN20160225111111111111111111                                                                                                           
02AGUIRRE TUESTA GABRIELA EMPERA0000null 1 MATRICULA                            0000000000100000000000000100000000000000000000000001111201602250000     
02DIAZ PAREDES DINELDA          0000null 3 MATRICULA                            0000000000100000000000000100000000000000000000000002222201602250000     
03000000002000000000020000000000000020000000000000000000                                                                                                